:100000000C94B5000C94D2000C94D2000C94D20045
:100010000C94D2000C94D2000C94D2000C94D20018
:100020000C94D2000C94D2000C94D2000C94D20008
:100030000C94D2000C94D2000C94D2000C94D200F8
:100040000C94D2000C94D2000C94D2000C94D200E8
:100050000C94D200696E6600494E46006E616E00D7
:100060004E414E0000407A10F35A00A0724E18091B
:100070000010A5D4E80000E87648170000E40B540F
:10008000020000CA9A3B000000E1F50500008096DE
:100090009800000040420F000000A0860100000010
:1000A000102700000000E8030000000064000000CA
:1000B00000000A00000000000100000000002C7693
:1000C000D888DC674F0823DFC1DFAE59E1B1B796AE
:1000D000E5E3E453C63AE651997696E8E6C284260B
:1000E000EB898C9B62ED407C6FFCEFBC9C9F40F2E7
:1000F000BAA56FA5F490055A2AF75C936B6CF96763
:100100006DC11BFCE0E40D47FEF520E6B500D0ED27
:10011000902E0300943577050080841E080000208F
:100120004E0A000000C80C333333330F986E12832D
:100130001141EF8D2114893BE65516CFFEE6DB1801
:10014000D1844B381BF77C1D901DA4BBE4242032C6
:1001500084725E228100C9F124ECA1E53D2763642D
:10016000696E6F70737578585B0011241FBECFE500
:10017000D8E0DEBFCDBF11E0A0E6B0E0E4E6F5E3F5
:1001800002C005900D92AA3AB107D9F711E0AAEA88
:10019000B1E001C01D92A03BB107E1F70E94E91751
:1001A0000C94B01A0C940000EF92FF920F931F93DF
:1001B0007B018C0120E030E040E05FE40E9480049D
:1001C00088238CF0C801B70120E030E040E05FE414
:1001D0000E944C020E943E059B01AC012050304021
:1001E0004040504806C0C801B7010E943E059B012F
:1001F000AC01B901CA011F910F91FF90EF900895D2
:10020000A0E0B0E0E6E0F1E00C945A1ADC012B012A
:10021000FA019C91923008F439C1EB018881823057
:1002200008F433C1943069F4843009F02FC1119679
:100230009C9111978981981709F428C1ADE7B0E026
:1002400025C1843009F421C18230A9F4923009F02B
:100250001DC19A01AD0188E0EA010990AE01E901F2
:1002600009929E018150C1F7E201898111969C910A
:100270008923818308C1923009F407C112962D9019
:100280003C901397EB018A819B811496AD90BD90B1
:10029000CD90DC901797EC80FD800E811F8191013D
:1002A000281B390BB90137FF04C066277727621B6B
:1002B000730B603271050CF061C0121613066CF5F9
:1002C00037014801062E04C096948794779467946A
:1002D0000A94D2F721E030E040E050E004C0220F61
:1002E000331F441F551F6A95D2F7215030404040BC
:1002F00050402E213F214023512321153105410536
:10030000510521F021E030E040E050E079018A0120
:10031000E628F728082919293CC0232BD1F1260EFD
:10032000371E35014601062E04C0969487947794B3
:1003300067940A94D2F721E030E040E050E004C036
:10034000220F331F441F551F6A95D2F721503040AA
:10035000404050402A213B214C215D21211531058F
:100360004105510521F021E030E040E050E0590125
:100370006A01A628B728C828D9280BC0821593057A
:100380002CF01C01AA24BB24650103C0EE24FF2429
:10039000870111969C91D20111968C91981709F4BE
:1003A00045C0992339F0A80197012A193B094C0946
:1003B0005D0906C0A60195012E193F09400B510B9E
:1003C00057FD08C0118233822282248335834683FD
:1003D00057831DC081E08183338222828827992739
:1003E000DC01821B930BA40BB50B84839583A6833E
:1003F000B7830DC0220F331F441F551F248335833D
:1004000046835783828193810197938382832481DA
:10041000358146815781DA01C9010197A109B109E6
:100420008F5F9F4FAF4FBF4328F30BC09183338241
:100430002282EA0CFB1C0C1D1D1DE482F582068342
:10044000178383E08083248135814681578157FF5C
:100450001AC0C901AA2797FDA095BA2F8170907084
:10046000A070B0705695479537952795822B932BA2
:10047000A42BB52B84839583A683B7838281938134
:10048000019693838283DF0101C0D201CD01CDB7F4
:10049000DEB7E2E10C94761AA0E2B0E0E2E5F2E029
:1004A0000C94661A69837A838B839C832D833E83A5
:1004B0004F835887E9E0EE2EF12CEC0EFD1ECE01A5
:1004C0000196B7010E942F078E010F5E1F4FCE01CC
:1004D0000596B8010E942F078A8991E089278A8BA7
:1004E000C701B801AE01475E5F4F0E9400010E9444
:1004F0005A06A096E6E00C94821AA0E2B0E0E3E887
:10050000F2E00C94661A69837A838B839C832D8333
:100510003E834F835887F9E0EF2EF12CEC0EFD1E41
:10052000CE010196B7010E942F078E010F5E1F4F6B
:10053000CE010596B8010E942F07C701B801AE0190
:10054000475E5F4F0E9400010E945A06A096E6E0B7
:100550000C94821AA0E2B0E0E0EBF2E00C945A1A9C
:1005600069837A838B839C832D833E834F83588753
:10057000CE010196BE01675F7F4F0E942F07CE011B
:100580000596BE016F5E7F4F0E942F0799859230BE
:1005900088F089898230C8F0943019F4823051F49F
:1005A00004C0843029F4923081F48DE790E0C6C015
:1005B000923049F420E09A858A89981321E02A87AD
:1005C000CE010996BBC0823049F420E09A858A8921
:1005D000981321E02A8BCE014196B0C02D843E8431
:1005E0004F8458886D887E888F88988CEE24FF24ED
:1005F0008701AA24BB24650140E050E060E070E080
:10060000E0E0F0E0C10181709070892BE9F0E60C28
:10061000F71C081D191D9A01AB012A0D3B1D4C1D2D
:100620005D1D80E090E0A0E0B0E0E614F70408056E
:10063000190520F481E090E0A0E0B0E0BA01A90142
:10064000480F591F6A1F7B1FAA0CBB1CCC1CDD1C4A
:1006500097FE08C081E090E0A0E0B0E0A82AB92AA7
:10066000CA2ADB2A3196E032F10549F0660C771C84
:10067000881C991C5694479437942794C3CFFA85C5
:10068000EA892B893C898B859C85280F391F2E5F31
:100690003F4F17C0CA0181709070892B61F0169589
:1006A0000795F794E79480E090E0A0E0B0E8E82AAE
:1006B000F92A0A2B1B2B76956795579547952F5F3F
:1006C0003F4F77FDE7CF0CC0440F551F661F771FC4
:1006D00017FD4160EE0CFF1C001F111F2150304020
:1006E000403090E0590790E0690790E4790760F3A3
:1006F0002B8F3C8FDB01CA018F779070A070B07098
:1007000080349105A105B10561F447FD0AC0E114EB
:10071000F1040105110529F0405C5F4F6F4F7F4FD9
:1007200040781A8EFE1711F081E08A8F4D8F5E8F10
:100730006F8F78A383E0898FCE0149960E945A0675
:10074000A096E2E10C94761AA8E1B0E0EAEAF3E0C0
:100750000C94621A69837A838B839C832D833E83F6
:100760004F835887B9E0EB2EF12CEC0EFD1ECE0125
:100770000196B7010E942F078E010F5E1F4FCE0119
:100780000596B8010E942F072985223008F47EC003
:100790003989323010F4B8017CC08A859A8989275A
:1007A0008A87243011F0223031F4231709F06EC00B
:1007B0006DE770E06EC0343039F41D861E861F86EA
:1007C000188A1C861B8604C0323021F484E0898795
:1007D000B7015FC02B853C858B899C89281B390B11
:1007E0003C872B87ED84FE840F851889AD88BE88F1
:1007F000CF88D88CEA14FB040C051D0540F4EE0CE0
:10080000FF1C001F111F215030403C872B8720E028
:1008100030E040E050E080E090E0A0E0B0E460E054
:1008200070E0EA14FB040C051D0540F0282B392B61
:100830004A2B5B2BEA18FB080C091D09B695A795F6
:1008400097958795EE0CFF1C001F111F6F5F7F4F60
:100850006F31710531F7DA01C9018F779070A0709F
:10086000B07080349105A105B10561F427FD0AC07F
:10087000E114F1040105110529F0205C3F4F4F4FB1
:100880005F4F20782D873E874F87588BBE01675F6B
:100890007F4FCB010E945A066896EAE00C947E1ABC
:1008A000A8E1B0E0E6E5F4E00C94661A69837A8387
:1008B0008B839C832D833E834F83588789E0E82E6A
:1008C000F12CEC0EFD1ECE010196B7010E942F0700
:1008D0008E010F5E1F4FCE010596B8010E942F07B3
:1008E0008985823040F08989823028F0C701B801BB
:1008F0000E94A70701C08FEF6896E6E00C94821A69
:10090000A8E1B0E0E6E8F4E00C94661A69837A8323
:100910008B839C832D833E834F83588789E0E82E09
:10092000F12CEC0EFD1ECE010196B7010E942F079F
:100930008E010F5E1F4FCE010596B8010E942F0752
:100940008985823040F08989823028F0C701B8015A
:100950000E94A70701C08FEF6896E6E00C94821A08
:10096000A8E1B0E0E6EBF4E00C94661A69837A83C0
:100970008B839C832D833E834F83588789E0E82EA9
:10098000F12CEC0EFD1ECE010196B7010E942F073F
:100990008E010F5E1F4FCE010596B8010E942F07F2
:1009A0008985823040F08989823028F0C701B801FA
:1009B0000E94A70701C081E06896E6E00C94821AC5
:1009C000A8E0B0E0E6EEF4E00C94631A9B01AC0101
:1009D00083E08983DA01C9018827B7FD83959927C8
:1009E000AA27BB27B82E211531054105510519F459
:1009F00082E089833AC08823A9F0203080E038075C
:100A000080E0480780E8580729F460E070E080E063
:100A10009FEC30C0EE24FF248701E21AF30A040B96
:100A2000150B02C079018A018EE1C82ED12CDC821F
:100A3000CB82ED82FE820F831887C801B7010E9426
:100A40000B0601971816190684F4082E04C0EE0C44
:100A5000FF1C001F111F0A94D2F7ED82FE820F8344
:100A60001887C81AD90ADC82CB82BA82CE010196D5
:100A70000E945A062896E9E00C947F1AACE0B0E098
:100A8000E4E4F5E00C946A1A69837A838B839C838F
:100A9000CE010196BE016B5F7F4F0E942F078D81B3
:100AA000823061F1823050F1843021F48E818823CC
:100AB00051F12EC02F81388537FD20C06E812F3136
:100AC00031051CF06623F9F023C08EE190E0821B13
:100AD000930B29853A854B855C8504C056954795CF
:100AE000379527958A95D2F76623B1F050954095B2
:100AF000309521953F4F4F4F5F4F0EC020E030E0C3
:100B000040E050E009C02FEF3FEF4FEF5FE704C038
:100B100020E030E040E050E8B901CA012C96E2E064
:100B20000C94861AA8E0B0E0E8E9F5E00C94621AAB
:100B30007B018C01611571058105910519F482E035
:100B4000898360C083E089838EE1C82ED12CDC824A
:100B5000CB82ED82FE820F831887C801B7010E9405
:100B60000B06FC013197F7FF3BC0222733272E1BD2
:100B70003F0B57016801022E04C0D694C794B79466
:100B8000A7940A94D2F740E050E060E070E081E082
:100B900090E0A0E0B0E004C0880F991FAA1FBB1F1F
:100BA0002A95D2F70197A109B1098E219F21A0238F
:100BB000B1230097A105B10521F041E050E060E0CC
:100BC00070E04A295B296C297D294D835E836F8300
:100BD00078878EE190E08E1B9F0B9C838B8312C0E5
:100BE000309781F00E2E04C0EE0CFF1C001F111F69
:100BF0000A94D2F7ED82FE820F831887CE1ADF0A9D
:100C0000DC82CB821A82CE0101960E945A06289677
:100C1000EAE00C947E1AEF92FF920F931F937B01F0
:100C20008C0180E0E81680E0F80681E0080780E0AB
:100C3000180788F48FEFE816F1040105110531F06B
:100C400028F088E090E0A0E0B0E017C080E090E0FD
:100C5000A0E0B0E012C080E0E81680E0F80680E096
:100C6000080781E0180728F088E190E0A0E0B0E0F4
:100C700004C080E190E0A0E0B0E020E230E040E09D
:100C800050E0281B390B4A0B5B0B04C016950795E7
:100C9000F794E7948A95D2F7F701EB57FF4F8081DD
:100CA000281B310941095109C9011F910F91FF907A
:100CB000EF900895DF92EF92FF920F931F93FC0144
:100CC000E480F58006811781D1808081823048F4EC
:100CD00080E090E0A0E1B0E0E82AF92A0A2B1B2B83
:100CE000A5C0843009F49FC0823021F4EE24FF2493
:100CF000870105C0E114F1040105110519F4E0E0D4
:100D0000F0E096C0628173819FEF623879070CF042
:100D10005BC022E83FEF261B370B2A3131052CF050
:100D200020E030E040E050E02AC0B801A701022EE8
:100D300004C076956795579547950A94D2F781E058
:100D400090E0A0E0B0E004C0880F991FAA1FBB1F6D
:100D50002A95D2F70197A109B1098E219F21A023DD
:100D6000B1230097A105B10521F081E090E0A0E05A
:100D7000B0E09A01AB01282B392B4A2B5B2BDA010F
:100D8000C9018F779070A070B07080349105A10573
:100D9000B10539F427FF09C0205C3F4F4F4F5F4F2B
:100DA00004C0215C3F4F4F4F5F4FE0E0F0E0203048
:100DB000A0E03A07A0E04A07A0E45A0710F0E1E0FB
:100DC000F0E079018A0127C06038710564F5FB0104
:100DD000E158FF4FD801C7018F779070A070B070B5
:100DE00080349105A105B10539F4E7FE0DC080E41A
:100DF00090E0A0E0B0E004C08FE390E0A0E0B0E0BD
:100E0000E80EF91E0A1F1B1F17FF05C01695079550
:100E1000F794E794319687E016950795F794E79451
:100E20008A95D1F705C0EE24FF248701EFEFF0E0AB
:100E30006E2F679566276795902F9F77D794DD244F
:100E4000D7948E2F8695492F462B582F5D29B701B1
:100E5000CA011F910F91FF90EF90DF900895FC0160
:100E6000DB01408151812281622F6F7770E0221F68
:100E70002227221F9381892F880F822B282F30E071
:100E8000991F9927991F11969C9311972115310548
:100E9000A9F5411551056105710511F482E037C0CE
:100EA00082E89FEF13969C938E9312979A01AB0161
:100EB00067E0220F331F441F551F6A95D1F783E067
:100EC0008C930DC0220F331F441F551F12968D9116
:100ED0009C911397019713969C938E9312972030B1
:100EE00080E0380780E0480780E4580758F31496FC
:100EF0002D933D934D935C93179708952F3F3105A4
:100F000079F4411551056105710519F484E08C935C
:100F1000089564FF03C081E08C9312C01C9210C03E
:100F20002F57304013963C932E93129783E08C9367
:100F300087E0440F551F661F771F8A95D1F77064AD
:100F400014964D935D936D937C93179708951F931B
:100F5000DC01FB019C91923008F447C08081823013
:100F600008F443C0943051F411961C91843099F5E3
:100F70008181682F70E0611B71093FC0843021F0CE
:100F8000923031F48230B9F18181882389F12DC00A
:100F900011961C9111978230F1F081811817D9F4C4
:100FA00012962D913C91139782819381821793071A
:100FB00094F028173907BCF014968D919D910D90EF
:100FC000BC91A02D2481358146815781281739078E
:100FD0004A075B0718F4112341F00AC082179307F0
:100FE000A407B50740F4112319F061E070E005C0D3
:100FF0006FEF7FEF02C060E070E0CB011F910895BA
:10100000A0E0B0E0E6E0F8E00C94651A7A01D02E9A
:10101000122F283008F017E0A701212F00E00E94CE
:101020008608682FF7015191252F50FF04C053FD0A
:1010300002C08DE209C0D1FE02C08BE205C0D0FC27
:1010400002C0C70104C080E2D7018C93CF01482FB2
:10105000392F23FF03C06CE570E004C022FF0BC0F2
:1010600064E570E0D2FE02C06C5F7F4F842F932F47
:101070000E945E0945C0F7012181DC012D932133D7
:1010800009F05F7E1123A9F0E701842F932FFC0163
:10109000912F2EE28A812183915021963196282F1B
:1010A0009923C1F71150812F90E00196A80FB91F25
:1010B0002D93D2FC02C085E601C085E4962FFD0188
:1010C000819367FF07C08DE211968C93DF01119623
:1010D00091950AC0662329F454FF03C0DF018DE215
:1010E00002C0DF018BE28D9380E302C08F5F9A50D4
:1010F0009A30E4F7FD018193905D11969C931182E3
:10110000C701CDB7DEB7E7E00C94811A283008F0AC
:1011100027E03327DA01990F311D87FD9160009692
:101120006105710539F432602E5F3D9330E32A95F5
:10113000E1F708959F3F30F080387105610509F0AF
:101140003C5F3C5F3D93913008F08068911DDF93D8
:10115000CF931F930F93FF92EF92192F987F96953D
:10116000E92F96959695E90FFF27E254FF4F9927AF
:101170003327EE24FF24A701E70105900894079484
:1011800028F4360FE71EF81E491F511D660F771F02
:10119000881F991F0694A1F70590079428F4E70E7D
:1011A000F81E491F561FC11D770F881F991F661F04
:1011B0000694A1F70590079428F4F80E491F561FCE
:1011C000C71FD11D880F991F661F771F0694A1F7AF
:1011D0000590079420F4490F561FC71FD81F990F79
:1011E000661F771F881F0694A9F7849110951770C2
:1011F00041F0D695C79557954795F794E7941A957A
:10120000C1F7E4E6F0E06894159015913591659189
:10121000959105907FE27395E118F10A430B560B07
:10122000C90BD009C0F7E10CF11E431F561FC91F9F
:10123000D01D7EF4703311F48A95E6CFE894015006
:1012400030F0080F0AF40027021708F4202F239526
:10125000022F7A3328F079E37D932A95E9F710C0BD
:101260007D932A9589F606949795679537951795F6
:101270001794E118F10A430B560BC90BD00998F0EB
:1012800023957E9173957A3308F070E37C93201355
:10129000B8F77E9170617D9330F0839571E37D9313
:1012A00070E32A95E1F71124EF90FF900F911F91C1
:1012B000CF91DF91992787FD90950895FB01DC017F
:1012C00005900D920020E1F70895FB019F01E8943D
:1012D0004230C4F04532B4F44A3029F497FB1EF48E
:1012E000909581959F4F642F77270E949C1A805D6F
:1012F0008A330CF0895D8193CB010097A1F716F436
:101300005DE251931082C9010C94400CAEE0B0E054
:10131000ECE8F9E00C946A1A85E08C838B899C894F
:101320009A8389839E01295E3F4FCE0101966D8984
:101330007E89A9010E94240B2E96E2E00C94861A65
:10134000FC0120FD08C023FD05C022FF02C07383FD
:101350006283518340830895EF92FF920F931F930E
:1013600044FF02C033E011C046FF02C034E00DC0AC
:10137000DB01FC01AA0FBB1FEE1FFF1F1094D1F76A
:101380006A0F7B1F8E1F9F1F31E0660F771F881F1C
:10139000991F3150D1F77B018C01E20EF11C011D28
:1013A000111DA8019701B701CA011F910F91FF906C
:1013B000EF9008950F931F93CF93DF938C01C80193
:1013C0000E94500CEC0197FD08C00E94911A892BD5
:1013D000B1F7CE01B8010E94920CCE01DF91CF91FE
:1013E0001F910F910895A0E0B0E0E9EFF9E00C94AF
:1013F000621AEC01C62E5A01122F0E94500CAC0149
:101400008B3219F08D3251F41068CA9409F46DC012
:10141000CE010E94500CAC0197FD67C06DEFD62E37
:10142000D1228D2D807301F54033F1F4CA9409F473
:1014300047C0CE010E94500CAC0197FD41C082E034
:10144000D82A483711F0483559F480E4D82ACA948C
:10145000B9F1CE010E94500CAC0199232CF430C09C
:10146000D6FC02C080E1D82AEE24FF248701242F75
:101470002053283088F0D4FC09C02A3068F0D6FE0A
:1014800005C02F7D822F8151863028F0CA01BE0110
:101490000E94920C12C02750C801B7014D2D0E9426
:1014A000AC097B018C0182E0D82ACA9461F0CE019C
:1014B0000E94500CAC0197FFDACFD1FC04C015C0DC
:1014C000EE24FF248701D7FE08C010950095F09404
:1014D000E094E11CF11C011D111DC501B801A7011B
:1014E0002D2D0E94A00981E001C080E0CDB7DEB7BC
:1014F000EAE00C947E1AA0E2B0E0E1E8FAE00C9495
:101500005E1A6C01A62E8A017901FE01319680E2F5
:10151000DF011D928A95E9F770E030E060E040E07D
:1015200050E04F01A1E0B0E0F6018381F70183FDB7
:10153000259183FF21917F01222309F47EC02E355E
:1015400019F44115510569F1872F90E0841795072B
:1015500044F42D3551F12D3221F4332329F431E0B7
:1015600021C0332309F4622F322F832F869586956D
:101570008695F401E80FF11D832F87703D0102C0AD
:10158000660C771C8A95E2F720812629208336177E
:1015900011F430E007C0361710F43F5FE6CF31504A
:1015A000E4CF71E04F5F5F4FBFCF332319F08E81DF
:1015B00080628E83772359F0FE0131969E012F5D64
:1015C0003F4F808180958193E217F307D1F7BB24C9
:1015D000B3944E010894811C911CC6010E94500CCA
:1015E000AC0197FD22C0869586958695F401E80F9B
:1015F000F11D808190E09A012770307002C09595AE
:1016000087952A95E2F780FD05C0CA01B6010E94C0
:10161000920C0BC00115110519F0D8014D938D01E5
:10162000AA94BB24AA20C9F602C0BB2031F401153C
:10163000110529F0F801108202C0EE24FF24C70131
:10164000A096EEE00C947A1AA0E0B0E0EAE2FBE0AB
:101650000C945E1A5C016B013A01FC011782168240
:101660008824EAC0812F90E00E94911A892B21F0F2
:10167000C5010E94DA09E0C0153249F4F601F3FC15
:101680006591F3FE61916F01653269F415E2C50160
:101690000E94500C97FDDCC0181709F4CDC0B501AD
:1016A0000E94920CDAC06A3219F0162F00E006C0D0
:1016B000F3FC1591F3FE11916F0101E099240FC025
:1016C0000260692D70E080E090E040E20E94AC0989
:1016D000962EF601F3FC1591F3FE11916F01212F67
:1016E00020532A3068F301FD03C099249A9403C063
:1016F000992009F4B2C0183621F01C3699F4F6018D
:101700000BC0F601F3FC6591F3FE6191683619F0A8
:101710006F01162F07C008600460F3FC1591F3FEFB
:1017200011916F01112309F498C08EE591E0612FAA
:1017300070E00E94350C892B09F48FC0802F00FFC8
:1017400003C0EE24FF2407C0F301E080F18022E013
:1017500030E0620E731E1E3651F4F501468157814A
:1017600060E070E0C701202F0E94A00965C0133619
:1017700091F481FD02C099249394C5010E94500CFC
:1017800097FD66C0E114F10419F0F70181937F0120
:101790009A9499F74FC01B3559F4C501692DA701DB
:1017A00096010E947B0A6C01009709F043C03DC07E
:1017B000C5010E94DA0997FD4BC01F3659F1103759
:1017C00028F4143629F1193639F527C0133719F0E2
:1017D000153711F51DC0C5010E94500CEC0197FD95
:1017E00011C00E94911A892B29F0CE01B5010E94E7
:1017F000920C08C0E114F10419F0F701C1937F01C4
:101800009A9449F7E114F104A9F0F701108212C08B
:10181000006203C0006101C00064C501692DA70119
:10182000202F0E94F309882329F4F5018381807316
:1018300079F413C000FF8394F501F380F601F3FC03
:101840001591F3FE11916F01112309F00BCF05C023
:10185000882019F42FEF3FEF02C0282D30E0C90196
:10186000CDB7DEB7EEE00C947A1AFC0105900616AF
:1018700021F00020D9F7C00108953197CF010895D4
:10188000DC01FC01672F71917723E1F7329704C0E7
:101890007C916D9370836291AE17BF07C8F3089572
:1018A000CF93DF93EC014B8140FF1AC046FF0AC083
:1018B0004F7B4B838E819F8101969F838E838A818C
:1018C000282F2BC042FF13C0E881F9818081282F87
:1018D000332727FD30952115310529F440624B83CC
:1018E0002FEF3FEF1BC03196F983E88311C0EA85E3
:1018F000FB85CE0109959C0197FF0AC09B812F5F54
:101900003F4F11F080E201C080E1892B8B83E8CF4B
:101910008E819F8101969F838E8330E0C901DF9184
:10192000CF9108959C01FB01838180FF11C086FD4A
:101930000FC09FEF2F3F390759F0228380648F7DBE
:1019400083838681978101979783868330E002C0E5
:101950002FEF3FEFC9010895DF93CF93CDB7DEB7E7
:1019600028970FB6F894DEBF0FBECDBF8A836B8376
:101970004C8319828B81883018F081E08983F2C012
:101980008C81882309F078C08A81282F30E038873D
:101990002F838F8198858230910561F12F81388561
:1019A0002330310534F48F8198858130910569F0B9
:1019B00060C02F8138852330310589F18F8198856A
:1019C0008430910509F440C054C0ABE3B0E0EBE3D0
:1019D000F0E08081482F8B81282F30E081E090E07B
:1019E000022E02C0880F991F0A94E2F78095842383
:1019F0008C93B8C0A8E3B0E0E8E3F0E08081482F22
:101A00008B81282F30E081E090E0022E02C0880F09
:101A1000991F0A94E2F7809584238C93A3C0A5E3D1
:101A2000B0E0E5E3F0E08081482F8B81282F30E0A3
:101A300081E090E0022E02C0880F991F0A94E2F71D
:101A4000809584238C938EC0A2E3B0E0E2E3F0E0C3
:101A50008081482F8B81282F30E081E090E0022E9A
:101A600002C0880F991F0A94E2F7809584238C9313
:101A700079C081E0898376C08C81813009F072C0A1
:101A80008A81282F30E03E832D838D819E81823094
:101A9000910551F12D813E812330310534F48D8142
:101AA0009E818130910561F05BC02D813E812330A4
:101AB000310571F18D819E8184309105E9F150C02D
:101AC000ABE3B0E0EBE3F0E08081482F8B81282F7F
:101AD00030E081E090E0022E02C0880F991F0A9446
:101AE000E2F7842B8C933EC0A8E3B0E0E8E3F0E09B
:101AF0008081482F8B81282F30E081E090E0022EFA
:101B000002C0880F991F0A94E2F7842B8C932AC095
:101B1000A5E3B0E0E5E3F0E08081482F8B81282F3A
:101B200030E081E090E0022E02C0880F991F0A94F5
:101B3000E2F7842B8C9316C0A2E3B0E0E2E3F0E07E
:101B40008081482F8B81282F30E081E090E0022EA9
:101B500002C0880F991F0A94E2F7842B8C9302C06D
:101B600081E08983898128960FB6F894DEBF0FBE85
:101B7000CDBFCF91DF910895DF93CF93CDB7DEB77F
:101B800027970FB6F894DEBF0FBECDBF8A836B8355
:101B90005D834C8319828B81883018F081E08983C2
:101BA00073C08A81282F30E03F832E834E815F816E
:101BB0004230510559F18E819F818330910534F473
:101BC0002E813F812130310569F05CC04E815F81FB
:101BD0004330510579F18E819F818430910509F45C
:101BE0003DC050C0E9E3F0E08081282F30E08B81D8
:101BF000882F90E0A90102C0559547958A95E2F794
:101C0000CA018170EC81FD8180833EC0E6E3F0E093
:101C10008081282F30E08B81882F90E0A90102C0BD
:101C2000559547958A95E2F7CA018170EC81FD814F
:101C300080832AC0E3E3F0E08081282F30E08B81AD
:101C4000882F90E0A90102C0559547958A95E2F743
:101C5000CA018170EC81FD81808316C0E0E3F0E071
:101C60008081282F30E08B81882F90E0A90102C06D
:101C7000559547958A95E2F7CA018170EC81FD81FF
:101C8000808302C081E08983898127960FB6F8940A
:101C9000DEBF0FBECDBFCF91DF910895DF93CF930D
:101CA00000D000D00F92CDB7DEB78A836B83198244
:101CB0008A81282F30E03D832C838C819D81823066
:101CC0009105D9F02C813D812330310534F48C818C
:101CD0009D818130910561F01FC02C813D812330B1
:101CE000310581F08C819D818430910581F014C093
:101CF000EBE3F0E08B81808311C0E8E3F0E08B81BF
:101D000080830CC0E5E3F0E08B81808307C0E2E3D1
:101D1000F0E08B81808302C081E0898389810F900C
:101D20000F900F900F900F90CF91DF910895DF9358
:101D3000CF9300D000D000D0CDB7DEB78A837C83AC
:101D40006B8319828A81282F30E03E832D834D8159
:101D50005E814230510559F18D819E81833091051C
:101D600034F42D813E812130310569F05CC04D8114
:101D70005E814330510579F18D819E8184309105DA
:101D800009F43DC050C0EBE3F0E08081282F30E043
:101D90008A81882F90E0A90102C0559547958A95C0
:101DA000E2F7CA018170EB81FC8180833EC0E8E3E9
:101DB000F0E08081282F30E08A81882F90E0A9010F
:101DC00002C0559547958A95E2F7CA018170EB816B
:101DD000FC8180832AC0E5E3F0E08081282F30E099
:101DE0008A81882F90E0A90102C0559547958A9570
:101DF000E2F7CA018170EB81FC81808316C0E2E3C7
:101E0000F0E08081282F30E08A81882F90E0A901BE
:101E100002C0559547958A95E2F7CA018170EB811A
:101E2000FC81808302C081E08983898126960FB678
:101E3000F894DEBF0FBECDBFCF91DF910895DF9341
:101E4000CF9300D000D00F92CDB7DEB78A836B83DB
:101E500019828B81883018F081E0898372C08A8171
:101E6000282F30E03D832C838C819D818230910529
:101E700051F12C813D812330310534F48C819D81D9
:101E80008130910561F05BC02C813D8123303105AB
:101E900071F18C819D8184309105E9F150C0ABE3F3
:101EA000B0E0EBE3F0E08081482F8B81282F30E019
:101EB00081E090E0022E02C0880F991F0A94E2F799
:101EC00084278C933EC0A8E3B0E0E8E3F0E0808193
:101ED000482F8B81282F30E081E090E0022E02C055
:101EE000880F991F0A94E2F784278C932AC0A5E3F0
:101EF000B0E0E5E3F0E08081482F8B81282F30E0CF
:101F000081E090E0022E02C0880F991F0A94E2F748
:101F100084278C9316C0A2E3B0E0E2E3F0E0808176
:101F2000482F8B81282F30E081E090E0022E02C004
:101F3000880F991F0A94E2F784278C9302C081E0EE
:101F4000898389810F900F900F900F900F90CF9100
:101F5000DF910895DF93CF93CDB7DEB7EAE3F0E0EA
:101F60008FEF8083E7E3F0E080EF8083E4E3F0E04D
:101F70008FEF8083E1E3F0E08FEF8083EBE3F0E02D
:101F80008FEF8083E8E3F0E08FEF8083E5E3F0E01C
:101F90008FEF8083E2E3F0E08FEF8083CF91DF91DA
:101FA0000895DF93CF93CDB7DEB7E9970FB6F894D6
:101FB000DEBF0FBECDBF89AF81E060E040E00E9490
:101FC000AC0C81E061E040E00E94AC0C89AD8295F0
:101FD0008F70882F90E081709070882331F081E0BD
:101FE00064E041E00E94AC0C05C081E064E040E0A8
:101FF0000E94AC0C89AD829586958770882F90E001
:1020000081709070882331F081E065E041E00E94AA
:10201000AC0C05C081E065E040E00E94AC0C89ADED
:102020008295869586958370882F90E08170907058
:10203000882331F081E066E041E00E94AC0C05C0ED
:1020400081E066E040E00E94AC0C89AD882334F466
:1020500081E067E041E00E94AC0C05C081E067E0F0
:1020600040E00E94AC0C81E062E041E00E94AC0CD8
:1020700080E090E0A0E8BFE38DAB9EABAFABB8AF24
:102080006DA97EA98FA998AD20E030E04AEF54E415
:102090000E94AA02DC01CB0189AB9AABABABBCAB13
:1020A00069A97AA98BA99CA920E030E040E85FE308
:1020B0000E94B00488232CF481E090E098AB8FA7B5
:1020C0003FC069A97AA98BA99CA920E03FEF4FE7FF
:1020D00057E40E94500418164CF56DA97EA98FA9EB
:1020E00098AD20E030E040E251E40E94AA02DC0119
:1020F000CB01BC01CD010E94D400DC01CB0198AB27
:102100008FA70FC088EC90E09EA78DA78DA59EA5F8
:102110000197F1F79EA78DA78FA598A9019798AB76
:102120008FA78FA598A9009769F714C069A97AA904
:102130008BA99CA90E94D400DC01CB0198AB8FA78E
:102140008FA598A99CA78BA78BA59CA50197F1F7B4
:102150009CA78BA781E062E040E00E94AC0C80E08D
:1021600090E0A0E0B0E48FA398A7A9A7BAA76FA1B9
:1021700078A589A59AA520E030E04AEF54E40E94B2
:10218000AA02DC01CB018BA39CA3ADA3BEA36BA1D0
:102190007CA18DA19EA120E030E040E85FE30E9499
:1021A000B00488232CF481E090E09AA389A33FC077
:1021B0006BA17CA18DA19EA120E03FEF4FE757E4EA
:1021C0000E94500418164CF56FA178A589A59AA510
:1021D00020E030E040E251E40E94AA02DC01CB01A1
:1021E000BC01CD010E94D400DC01CB019AA389A3DC
:1021F0000FC088EC90E098A38F8F8F8D98A10197E6
:10220000F1F798A38F8F89A19AA101979AA389A327
:1022100089A19AA1009769F714C06BA17CA18DA137
:102220009EA10E94D400DC01CB019AA389A389A1BD
:102230009AA19E8F8D8F8D8D9E8D0197F1F79E8F28
:102240008D8F89AD882F90E081709070882331F058
:1022500081E064E041E00E94AC0C05C081E064E0F4
:1022600040E00E94AC0C89AD8695882F90E081708B
:102270009070882331F081E065E041E00E94AC0C71
:1022800005C081E065E040E00E94AC0C89AD869518
:102290008695882F90E081709070882331F081E0DE
:1022A00066E041E00E94AC0C05C081E066E040E0E1
:1022B0000E94AC0C89AD869586958695882F90E016
:1022C00081709070882331F081E067E041E00E94E6
:1022D000AC0C05C081E067E040E00E94AC0C81E0FE
:1022E00062E041E00E94AC0C80E090E0A0E8BFE337
:1022F000898F9A8FAB8FBC8F698D7A8D8B8D9C8DDA
:1023000020E030E04AEF54E40E94AA02DC01CB0155
:102310008D8B9E8BAF8BB88F6D897E898F89988DC1
:1023200020E030E040E85FE30E94B00488232CF412
:1023300081E090E09C8B8B8B3FC06D897E898F897B
:10234000988D20E03FEF4FE757E40E9450041816A5
:102350004CF5698D7A8D8B8D9C8D20E030E040E2CC
:1023600051E40E94AA02DC01CB01BC01CD010E9414
:10237000D400DC01CB019C8B8B8B0FC088EC90E0F0
:102380009A8B898B89899A890197F1F79A8B898B26
:102390008B899C8901979C8B8B8B8B899C8900975F
:1023A00069F714C06D897E898F89988D0E94D40049
:1023B000DC01CB019C8B8B8B8B899C89988B8F87C5
:1023C0008F8598890197F1F7988B8F8781E062E07C
:1023D00040E00E94AC0C80E090E0A0E0B0E48B878D
:1023E0009C87AD87BE876B857C858D859E8520E02B
:1023F00030E04AEF54E40E94AA02DC01CB018F8353
:102400009887A987BA876F81788589859A8520E022
:1024100030E040E85FE30E94B00488232CF481E0C0
:1024200090E09E838D833FC06F81788589859A85F2
:1024300020E03FEF4FE757E40E94500418164CF598
:102440006B857C858D859E8520E030E040E251E4FF
:102450000E94AA02DC01CB01BC01CD010E94D40084
:10246000DC01CB019E838D830FC088EC90E09C83C0
:102470008B838B819C810197F1F79C838B838D816A
:102480009E8101979E838D838D819E81009769F740
:1024900014C06F81788589859A850E94D400DC01FB
:1024A000CB019E838D838D819E819A8389838981CF
:1024B0009A810197F1F79A838983E9960FB6F89488
:1024C000DEBF0FBECDBFCF91DF910895DF93CF93D5
:1024D000CDB7DEB7E9970FB6F894DEBF0FBECDBF1C
:1024E00089AF81E060E041E00E94AC0C81E061E0F6
:1024F00040E00E94AC0C89AD82958F70882F90E0EF
:1025000081709070882331F081E064E041E00E94A6
:10251000AC0C05C081E064E040E00E94AC0C89ADE9
:10252000829586958770882F90E0817090708823BF
:1025300031F081E065E041E00E94AC0C05C081E033
:1025400065E040E00E94AC0C89AD82958695869549
:102550008370882F90E081709070882331F081E043
:1025600066E041E00E94AC0C05C081E066E040E01E
:102570000E94AC0C89AD882334F481E067E041E02F
:102580000E94AC0C05C081E067E040E00E94AC0C0A
:1025900081E062E041E00E94AC0C80E090E0A0E8C5
:1025A000BFE38DAB9EABAFABB8AF6DA97EA98FA9D2
:1025B00098AD20E030E04AEF54E40E94AA02DC012A
:1025C000CB0189AB9AABABABBCAB69A97AA98BA9A0
:1025D0009CA920E030E040E85FE30E94B00488233B
:1025E0002CF481E090E098AB8FA73FC069A97AA94D
:1025F0008BA99CA920E03FEF4FE757E40E945004CD
:1026000018164CF56DA97EA98FA998AD20E030E091
:1026100040E251E40E94AA02DC01CB01BC01CD01E1
:102620000E94D400DC01CB0198AB8FA70FC088ECCF
:1026300090E09EA78DA78DA59EA50197F1F79EA777
:102640008DA78FA598A9019798AB8FA78FA598A95B
:10265000009769F714C069A97AA98BA99CA90E945F
:10266000D400DC01CB0198AB8FA78FA598A99CA7BC
:102670008BA78BA59CA50197F1F79CA78BA781E061
:1026800062E040E00E94AC0C80E090E0A0E0B0E4AA
:102690008FA398A7A9A7BAA76FA178A589A59AA57E
:1026A00020E030E04AEF54E40E94AA02DC01CB01B2
:1026B0008BA39CA3ADA3BEA36BA17CA18DA19EA166
:1026C00020E030E040E85FE30E94B00488232CF46F
:1026D00081E090E09AA389A33FC06BA17CA18DA16A
:1026E0009EA120E03FEF4FE757E40E9450041816E8
:1026F0004CF56FA178A589A59AA520E030E040E2CD
:1027000051E40E94AA02DC01CB01BC01CD010E9470
:10271000D400DC01CB019AA389A30FC088EC90E020
:1027200098A38F8F8F8D98A10197F1F798A38F8F22
:1027300089A19AA101979AA389A389A19AA1009737
:1027400069F714C06BA17CA18DA19EA10E94D40049
:10275000DC01CB019AA389A389A19AA19E8F8D8FB9
:102760008D8D9E8D0197F1F79E8F8D8F89AD882F6E
:1027700090E081709070882331F081E064E041E066
:102780000E94AC0C05C081E064E040E00E94AC0C0B
:1027900089AD8695882F90E081709070882331F004
:1027A00081E065E041E00E94AC0C05C081E065E09D
:1027B00040E00E94AC0C89AD86958695882F90E00C
:1027C00081709070882331F081E066E041E00E94E2
:1027D000AC0C05C081E066E040E00E94AC0C89AD25
:1027E000869586958695882F90E0817090708823D5
:1027F00031F081E067E041E00E94AC0C05C081E06F
:1028000067E040E00E94AC0C81E062E041E00E94A1
:10281000AC0C80E090E0A0E8BFE3898F9A8FAB8F8B
:10282000BC8F698D7A8D8B8D9C8D20E030E04AEFD6
:1028300054E40E94AA02DC01CB018D8B9E8BAF8BEE
:10284000B88F6D897E898F89988D20E030E040E8CF
:102850005FE30E94B00488232CF481E090E09C8B1D
:102860008B8B3FC06D897E898F89988D20E03FEFEB
:102870004FE757E40E94500418164CF5698D7A8D85
:102880008B8D9C8D20E030E040E251E40E94AA0252
:10289000DC01CB01BC01CD010E94D400DC01CB01E5
:1028A0009C8B8B8B0FC088EC90E09A8B898B8989ED
:1028B0009A890197F1F79A8B898B8B899C8901976B
:1028C0009C8B8B8B8B899C89009769F714C06D89D1
:1028D0007E898F89988D0E94D400DC01CB019C8B6E
:1028E0008B8B8B899C89988B8F878F859889019793
:1028F000F1F7988B8F8781E062E040E00E94AC0C9A
:1029000080E090E0A0E0B0E48B879C87AD87BE8735
:102910006B857C858D859E8520E030E04AEF54E410
:102920000E94AA02DC01CB018F839887A987BA870E
:102930006F81788589859A8520E030E040E85FE303
:102940000E94B00488232CF481E090E09E838D8364
:102950003FC06F81788589859A8520E03FEF4FE7FA
:1029600057E40E94500418164CF56B857C858D85C4
:102970009E8520E030E040E251E40E94AA02DC01A2
:10298000CB01BC01CD010E94D400DC01CB019E83B0
:102990008D830FC088EC90E09C838B838B819C811E
:1029A0000197F1F79C838B838D819E8101979E8394
:1029B0008D838D819E81009769F714C06F81788522
:1029C00089859A850E94D400DC01CB019E838D838A
:1029D0008D819E819A83898389819A810197F1F7FC
:1029E0009A838983E9960FB6F894DEBF0FBECDBFF8
:1029F000CF91DF910895DF93CF93CDB7DEB72E97B8
:102A00000FB6F894DEBF0FBECDBF80E090E0A0E22D
:102A1000B2E48B879C87AD87BE876B857C858D856F
:102A20009E8520E030E04AEF54E40E94AA02DC01D7
:102A3000CB018F839887A987BA876F81788589852D
:102A40009A8520E030E040E85FE30E94B0048823EC
:102A50002CF481E090E09E838D833FC06F81788568
:102A600089859A8520E03FEF4FE757E40E945004A4
:102A700018164CF56B857C858D859E8520E030E0B1
:102A800040E251E40E94AA02DC01CB01BC01CD016D
:102A90000E94D400DC01CB019E838D830FC088ECA3
:102AA00090E09C838B838B819C810197F1F79C83C1
:102AB0008B838D819E8101979E838D838D819E81E5
:102AC000009769F714C06F81788589859A850E947F
:102AD000D400DC01CB019E838D838D819E819A83FE
:102AE000898389819A810197F1F79A83898383E3A6
:102AF0000E94D10F82E30E94D10F88E20E94D10F81
:102B00008FE00E94D10F86E00E94D10F81E00E94E9
:102B1000D10F2E960FB6F894DEBF0FBECDBFCF916A
:102B2000DF910895DF93CF93CDB7DEB781E00E94A8
:102B3000D10F80E80E94D10FCF91DF910895DF93EC
:102B4000CF93CDB7DEB768970FB6F894DEBF0FBE50
:102B5000CDBF6D8B7E8B8F8B988F8D899E899E01CB
:102B60002F5F3F4FB9014AE050E00E946509CE0156
:102B700001960E94EF1568960FB6F894DEBF0FBE5F
:102B8000CDBFCF91DF9108950F93DF93CF93CDB752
:102B9000DEB768970FB6F894DEBF0FBECDBF6D8B62
:102BA0007E8B8F8B988F8D899E89AF89B88DBC0164
:102BB000CD019E012F5F3F4FA90122E002E00E945C
:102BC0000008CE0101960E94EF1568960FB6F894A2
:102BD000DEBF0FBECDBFCF91DF910F910895DF9380
:102BE000CF9300D00F92CDB7DEB79B838A83198233
:102BF0000EC08981282F30E08A819B81FC01E20F81
:102C0000F31F80810E94661289818F5F8983898189
:102C1000282F30E08A819B81FC01E20FF31F808125
:102C2000882339F70F900F900F90CF91DF9108957F
:102C3000DF93CF9300D00F92CDB7DEB78A836B833B
:102C400019828A81882319F480E8898305C08A81E2
:102C5000813011F480EC89838B81803120F489816B
:102C60009B81890F898389810E94D10F0F900F90DA
:102C70000F90CF91DF910895DF93CF93CDB7DEB75B
:102C8000A2970FB6F894DEBF0FBECDBF1C821B8289
:102C90001A82198281E08D8384E08E8385E08F83A0
:102CA00086E0888787E089871A8681E08B8782E0C3
:102CB0008C8783E08D87CE010E969F8F8E8FE9E9FA
:102CC000F1E0F9A3E8A3F0E1FAA3E8A1F9A10080FB
:102CD00088A199A1019699A388A3EE8DFF8D00820A
:102CE0008E8D9F8D01969F8F8E8F9AA191509AA362
:102CF000EAA1EE2351F71A826BC08A81282F30E0B7
:102D0000CE010696FC01E20FF31F908182E0692F4D
:102D100040E00E94AC0C198243C08981282F30E02A
:102D2000CE010A96FC01E20FF31F90819E012B5FFA
:102D30003F4F82E0692FA9010E94BC0D8D8188233D
:102D400061F511C08981282F30E0CE010A96FC017F
:102D5000E20FF31F90819E012B5F3F4F82E0692FAE
:102D6000A9010E94BC0D8D81882361F38981282FE0
:102D700030E08A81482F50E0220F331F220F331F8B
:102D8000CE010196820F931F840F951FFC013D9683
:102D900080818C8381E08B8307C089818F5F8983E9
:102DA0008981843008F4B9CF8A81282F30E0CE01A0
:102DB0000696FC01E20FF31F908182E0692F41E04B
:102DC0000E94AC0C8B81882339F48A818F5F8A83BF
:102DD0008A81843008F491CF8C81A2960FB6F89442
:102DE000DEBF0FBECDBFCF91DF910895DF93CF93AC
:102DF00000D000D0CDB7DEB789836A835C834B8374
:102E00008981282F30E08A81882F90E0820F931FDC
:102E1000EB81FC81918380830F900F900F900F9036
:102E2000CF91DF910895DF93CF9300D000D0CDB73D
:102E3000DEB789836A835C834B838981282F30E0E6
:102E40008A81882F90E0A901481B590BCA01EB81A8
:102E5000FC81918380830F900F900F900F90CF9102
:102E6000DF910895DF93CF9300D000D0CDB7DEB7C8
:102E700089836A835C834B838981282F30E08A8130
:102E8000882F90E0AC01249FC001259F900D349FB6
:102E9000900D1124EB81FC81918380830F900F9022
:102EA0000F900F90CF91DF910895DF93CF9300D0D3
:102EB00000D0CDB7DEB789836A835C834B83898179
:102EC0009A81692F0E944E1A882F90E0AA2797FDB9
:102ED000A095BA2FBC01CD010E94E004DC01CB011A
:102EE000EB81FC8180839183A283B3830F900F9049
:102EF0000F900F90CF91DF910895DF93CF93CDB7CF
:102F0000DEB727970FB6F894DEBF0FBECDBF9F8305
:102F10008E831D8219821A821B821C823FC08D8182
:102F2000282F30E08E819F81FC01E20FF31F80810A
:102F30008033A0F18D81282F30E08E819F81FC01AC
:102F4000E20FF31F80818A3348F589819A81AB8132
:102F5000BC812AE030E040E050E0BC01CD010E949D
:102F60002F1AAB01BC018D81282F30E08E819F810B
:102F7000FC01E20FF31F8081882F90E0C097AA2701
:102F800097FDA095BA2F840F951FA61FB71F8983A1
:102F90009A83AB83BC838D818F5F8D838D81282F36
:102FA00030E08E819F81FC01E20FF31F8081882336
:102FB00009F0B5CF89819A81AB81BC81BC01CD017B
:102FC00027960FB6F894DEBF0FBECDBFCF91DF912D
:102FD0000895DF93CF93CDB7DEB76C970FB6F89413
:102FE000DEBF0FBECDBF0E94AA0F0E94FB1480E07F
:102FF00065E00E94181680E690E00E94EF1581E0DF
:1030000063E00E94181687E690E00E94EF1580E0CA
:1030100090E0AAE7B4E4898F9A8FAB8FBC8F698D5B
:103020007A8D8B8D9C8D20E030E04AEF54E40E9435
:10303000AA02DC01CB018D8B9E8BAF8BB88F6D8983
:103040007E898F89988D20E030E040E85FE30E9420
:10305000B00488232CF481E090E09C8B8B8B3FC0E4
:103060006D897E898F89988D20E03FEF4FE757E487
:103070000E94500418164CF5698D7A8D8B8D9C8DAD
:1030800020E030E040E251E40E94AA02DC01CB01E2
:10309000BC01CD010E94D400DC01CB019C8B8B8B49
:1030A0000FC088EC90E09A8B898B89899A89019767
:1030B000F1F79A8B898B8B899C8901979C8B8B8BE1
:1030C0008B899C89009769F714C06D897E898F89E7
:1030D000988D0E94D400DC01CB019C8B8B8B8B895B
:1030E0009C89988B8F878F8598890197F1F7988BAA
:1030F0008F870E9492150E943C168093AF018091A9
:10310000AF018823C1F38091AF018D3309F0A1C0D5
:103110008091AA01882F90E0FC01EB57FE4F1082AE
:1031200085E891E00E943C19DC01CB018093AB0162
:103130009093AC01A093AD01B093AE010E949215A3
:1031400085E891E00E94661280E060E00E94181617
:103150008091AB019091AC01A091AD01B091AE0115
:10316000BC01CD010E94C4151092AA0180E090E03C
:10317000AAEFB3E48B879C87AD87BE876B857C8580
:103180008D859E8520E030E04AEF54E40E94AA023B
:10319000DC01CB018F839887A987BA876F817885F7
:1031A00089859A8520E030E040E85FE30E94B00422
:1031B00088232CF481E090E09E838D833FC06F8153
:1031C000788589859A8520E03FEF4FE757E40E9494
:1031D000500418164CF56B857C858D859E8520E006
:1031E00030E040E251E40E94AA02DC01CB01BC01C4
:1031F000CD010E94D400DC01CB019E838D830FC0E2
:1032000088EC90E09C838B838B819C810197F1F704
:103210009C838B838D819E8101979E838D838D817D
:103220009E81009769F767CF6F81788589859A8538
:103230000E94D400DC01CB019E838D838D819E8111
:103240009A83898389819A810197F1F79A83898387
:1032500052CF3091AA01832F90E02091AF01FC0161
:10326000EB57FE4F2083832F8F5F8093AA018091BD
:10327000AF010E9466123FCFEF92FF920F931F9310
:10328000DF93CF93CDB7DEB761970FB6F894DEBF6B
:103290000FBECDBF9B878A872DB73EB72A503040DF
:1032A0000FB6F8943EBF0FBE2DBFEDB7FEB73196F7
:1032B0008A859B859183808382E790E093838283D4
:1032C000CE01019695838483CE01099697838683E8
:1032D000CE010596918780870E948609ADB7BEB75B
:1032E0001A960FB6F894BEBF0FBEADBF83309105DE
:1032F00049F080E090E0A0E0B0E08E879F87A88B47
:10330000B98B9AC08985A82FB0E0BD87AC872C8582
:103310003D852F32310509F457C08C859D8580335A
:1033200091055CF4AC85BD85AB32B10561F02C85AF
:103330003D852D323105E1F077C08C859D8588353E
:10334000910559F171C089819A81AB81BC812D8130
:103350003E814F815885820F931FA41FB51FBC016A
:10336000CD010E9492056E877F87888B998B64C000
:1033700089819A81AB81BC812D813E814F815885A5
:10338000821B930BA40BB50BBC01CD010E949205CF
:103390006E877F87888B998B4FC089819A81AB819B
:1033A000BC812D813E814F815885BC01CD010E9499
:1033B0002F1ADC01CB01BC01CD010E9492056E8762
:1033C0007F87888B998B38C08D819E81AF81B8852E
:1033D0000097A105B105F9F089819A81AB81BC8183
:1033E000BC01CD010E9492057B018C018D819E81E3
:1033F000AF81B885BC01CD010E9492059B01AC0153
:10340000C801B7010E94A403DC01CB018E879F870E
:10341000A88BB98B11C080E090E0A0E0B0E08E876F
:103420009F87A88BB98B08C080E090E0A0E0B0E057
:103430008E879F87A88BB98B8E859F85A889B98930
:10344000BC01CD0161960FB6F894DEBF0FBECDBFB3
:10345000CF91DF911F910F91FF90EF900895629FA0
:10346000D001739FF001829FE00DF11D649FE00D7C
:10347000F11D929FF00D839FF00D749FF00D659FDD
:10348000F00D9927729FB00DE11DF91F639FB00DDC
:10349000E11DF91FBD01CF0111240895991B79E0A9
:1034A00004C0991F961708F0961B881F7A95C9F7D4
:1034B000809508952F923F924F925F926F927F92E4
:1034C0008F929F92AF92BF92CF92DF92EF92FF9234
:1034D0000F931F93CF93DF93CDB7DEB7CA1BDB0BE0
:1034E0000FB6F894DEBF0FBECDBF09942A88398885
:1034F00048885F846E847D848C849B84AA84B9848C
:10350000C884DF80EE80FD800C811B81AA81B98197
:10351000CE0FD11D0FB6F894DEBF0FBECDBFED01AB
:103520000895911106C0803219F089508550D0F766
:103530000895992788270895AA1BBB1B51E107C04E
:10354000AA1FBB1FA617B70710F0A61BB70B881F33
:10355000991F5A95A9F780959095BC01CD010895C2
:04356000F894FFCF0D
:1035640053696D706C650043616C63756C61746F55
:103574007200256C7520256320256C750000000001
:10358400000000000000010202030303030404041A
:1035940004040404040505050505050505050505DC
:1035A40005050505050606060606060606060606BC
:1035B40006060606060606060606060606060606A7
:1035C400060606060607070707070707070707078C
:1035D4000707070707070707070707070707070777
:1035E4000707070707070707070707070707070767
:1035F4000707070707070707070707070707070757
:10360400070707070708080808080808080808083B
:103614000808080808080808080808080808080826
:103624000808080808080808080808080808080816
:103634000808080808080808080808080808080806
:1036440008080808080808080808080808080808F6
:1036540008080808080808080808080808080808E6
:1036640008080808080808080808080808080808D6
:1036740008080808080808080808080808080808C6
:10368400080808080800000000000000000000000E
:103694000000000000000000003738392F343536B0
:0A36A400583132332D43303D2B0026
:00000001FF
